{
  "abi": [
    {
      "inputs": [],
      "stateMutability": "nonpayable",
      "type": "constructor"
    },
    {
      "inputs": [],
      "name": "NotAuthorized",
      "type": "error"
    },
    {
      "inputs": [
        {
          "internalType": "address",
          "name": "guard_",
          "type": "address"
        }
      ],
      "name": "NotIERC165Compliant",
      "type": "error"
    },
    {
      "inputs": [],
      "name": "OnlySafe",
      "type": "error"
    },
    {
      "anonymous": false,
      "inputs": [
        {
          "indexed": true,
          "internalType": "address",
          "name": "previousAvatar",
          "type": "address"
        },
        {
          "indexed": true,
          "internalType": "address",
          "name": "newAvatar",
          "type": "address"
        }
      ],
      "name": "AvatarSet",
      "type": "event"
    },
    {
      "anonymous": false,
      "inputs": [
        {
          "indexed": false,
          "internalType": "address",
          "name": "guard",
          "type": "address"
        }
      ],
      "name": "ChangedGuard",
      "type": "event"
    },
    {
      "anonymous": false,
      "inputs": [
        {
          "indexed": false,
          "internalType": "uint8",
          "name": "version",
          "type": "uint8"
        }
      ],
      "name": "Initialized",
      "type": "event"
    },
    {
      "anonymous": false,
      "inputs": [
        {
          "indexed": true,
          "internalType": "address",
          "name": "previousOwner",
          "type": "address"
        },
        {
          "indexed": true,
          "internalType": "address",
          "name": "newOwner",
          "type": "address"
        }
      ],
      "name": "OwnershipTransferred",
      "type": "event"
    },
    {
      "anonymous": false,
      "inputs": [
        {
          "indexed": true,
          "internalType": "address",
          "name": "previousTarget",
          "type": "address"
        },
        {
          "indexed": true,
          "internalType": "address",
          "name": "newTarget",
          "type": "address"
        }
      ],
      "name": "TargetSet",
      "type": "event"
    },
    {
      "inputs": [],
      "name": "avatar",
      "outputs": [
        {
          "internalType": "address",
          "name": "",
          "type": "address"
        }
      ],
      "stateMutability": "view",
      "type": "function"
    },
    {
      "inputs": [],
      "name": "beneficiary",
      "outputs": [
        {
          "internalType": "address",
          "name": "",
          "type": "address"
        }
      ],
      "stateMutability": "view",
      "type": "function"
    },
    {
      "inputs": [
        {
          "internalType": "bytes",
          "name": "data",
          "type": "bytes"
        }
      ],
      "name": "claimSafe",
      "outputs": [],
      "stateMutability": "nonpayable",
      "type": "function"
    },
    {
      "inputs": [],
      "name": "expiration",
      "outputs": [
        {
          "internalType": "uint256",
          "name": "",
          "type": "uint256"
        }
      ],
      "stateMutability": "view",
      "type": "function"
    },
    {
      "inputs": [
        {
          "internalType": "uint256",
          "name": "by",
          "type": "uint256"
        }
      ],
      "name": "extendValidity",
      "outputs": [],
      "stateMutability": "nonpayable",
      "type": "function"
    },
    {
      "inputs": [],
      "name": "getGuard",
      "outputs": [
        {
          "internalType": "address",
          "name": "_guard",
          "type": "address"
        }
      ],
      "stateMutability": "view",
      "type": "function"
    },
    {
      "inputs": [],
      "name": "guard",
      "outputs": [
        {
          "internalType": "address",
          "name": "",
          "type": "address"
        }
      ],
      "stateMutability": "view",
      "type": "function"
    },
    {
      "inputs": [
        {
          "internalType": "address",
          "name": "safe",
          "type": "address"
        },
        {
          "internalType": "address",
          "name": "_benefiary",
          "type": "address"
        },
        {
          "internalType": "uint256",
          "name": "_expiration",
          "type": "uint256"
        }
      ],
      "name": "init",
      "outputs": [],
      "stateMutability": "nonpayable",
      "type": "function"
    },
    {
      "inputs": [],
      "name": "owner",
      "outputs": [
        {
          "internalType": "address",
          "name": "",
          "type": "address"
        }
      ],
      "stateMutability": "view",
      "type": "function"
    },
    {
      "inputs": [],
      "name": "renounceOwnership",
      "outputs": [],
      "stateMutability": "nonpayable",
      "type": "function"
    },
    {
      "inputs": [
        {
          "internalType": "address",
          "name": "_avatar",
          "type": "address"
        }
      ],
      "name": "setAvatar",
      "outputs": [],
      "stateMutability": "nonpayable",
      "type": "function"
    },
    {
      "inputs": [
        {
          "internalType": "address",
          "name": "_beneficiary",
          "type": "address"
        }
      ],
      "name": "setBeneficiary",
      "outputs": [],
      "stateMutability": "nonpayable",
      "type": "function"
    },
    {
      "inputs": [
        {
          "internalType": "address",
          "name": "_guard",
          "type": "address"
        }
      ],
      "name": "setGuard",
      "outputs": [],
      "stateMutability": "nonpayable",
      "type": "function"
    },
    {
      "inputs": [
        {
          "internalType": "address",
          "name": "_target",
          "type": "address"
        }
      ],
      "name": "setTarget",
      "outputs": [],
      "stateMutability": "nonpayable",
      "type": "function"
    },
    {
      "inputs": [
        {
          "internalType": "bytes",
          "name": "initializeParams",
          "type": "bytes"
        }
      ],
      "name": "setUp",
      "outputs": [],
      "stateMutability": "nonpayable",
      "type": "function"
    },
    {
      "inputs": [],
      "name": "target",
      "outputs": [
        {
          "internalType": "address",
          "name": "",
          "type": "address"
        }
      ],
      "stateMutability": "view",
      "type": "function"
    },
    {
      "inputs": [
        {
          "internalType": "address",
          "name": "newOwner",
          "type": "address"
        }
      ],
      "name": "transferOwnership",
      "outputs": [],
      "stateMutability": "nonpayable",
      "type": "function"
    }
  ],
  "bytecode": {
    "object": "0x608060405234801561001057600080fd5b5061001a3361001f565b610071565b603380546001600160a01b038381166001600160a01b0319831681179093556040519116919082907f8be0079c531659141344cd1fd0a4f28419497f9722a3daafe3b4186f6b6457e090600090a35050565b610b89806100806000396000f3fe608060405234801561001057600080fd5b506004361061010b5760003560e01c8063776d1a01116100a2578063a4f9edbf11610071578063a4f9edbf1461020a578063c91063891461021b578063d4b839921461022c578063e19a9dd91461023f578063f2fde38b1461025257600080fd5b8063776d1a01146101c05780637ceab3b1146101d357806386863ec6146101e65780638da5cb5b146101f957600080fd5b80634665096d116100de5780634665096d1461017b578063525a142f146101925780635aef7de6146101a5578063715018a6146101b857600080fd5b8063086cfca8146101105780631a891577146101255780631c31f7101461013857806338af3eed1461014b575b600080fd5b61012361011e366004610896565b610265565b005b6101236101333660046108ce565b6102bf565b610123610146366004610896565b610315565b60695461015e906001600160a01b031681565b6040516001600160a01b0390911681526020015b60405180910390f35b61018460685481565b604051908152602001610172565b6101236101a036600461097f565b610362565b60665461015e906001600160a01b031681565b6101236103a1565b6101236101ce366004610896565b6103b5565b60655461015e906001600160a01b031681565b6101236101f4366004610998565b61040f565b6033546001600160a01b031661015e565b6101236102183660046108ce565b50565b6065546001600160a01b031661015e565b60675461015e906001600160a01b031681565b61012361024d366004610896565b610448565b610123610260366004610896565b61054f565b61026d6105c5565b606680546001600160a01b038381166001600160a01b0319831681179093556040519116919082907f52ae88b092de36f87fb43fe794eb1381023b9c1bce563a871154022c63dce34290600090a35050565b426068541080156102da57506069546001600160a01b031633145b156102fc576066546102f8906001600160a01b03166000838161061f565b5050565b60405163ea8e4eb560e01b815260040160405180910390fd5b6067546001600160a01b031633146103405760405163d7fed6bd60e01b815260040160405180910390fd5b606980546001600160a01b0319166001600160a01b0392909216919091179055565b6067546001600160a01b0316331461038d5760405163d7fed6bd60e01b815260040160405180910390fd5b8060685461039b91906109d4565b60685550565b6103a96105c5565b6103b36000610828565b565b6103bd6105c5565b606780546001600160a01b038381166001600160a01b0319831681179093556040519116919082907f90cc2f570a6eb594b1580ea3e41247d2d73a55281889e86bd4ec2fc29c7e62d690600090a35050565b61041883610265565b610421836103b5565b606980546001600160a01b0319166001600160a01b03939093169290921790915560685550565b6104506105c5565b6001600160a01b038116156104fb576040516301ffc9a760e01b815263736bd41d60e11b60048201526001600160a01b038216906301ffc9a790602401602060405180830381865afa1580156104aa573d6000803e3d6000fd5b505050506040513d601f19601f820116820180604052508101906104ce91906109fb565b6104fb576040516358b7533f60e11b81526001600160a01b03821660048201526024015b60405180910390fd5b606580546001600160a01b0319166001600160a01b0383169081179091556040519081527f1151116914515bc0891ff9047a6cb32cf902546f83066499bcf8ba33d2353fa29060200160405180910390a150565b6105576105c5565b6001600160a01b0381166105bc5760405162461bcd60e51b815260206004820152602660248201527f4f776e61626c653a206e6577206f776e657220697320746865207a65726f206160448201526564647265737360d01b60648201526084016104f2565b61021881610828565b6033546001600160a01b031633146103b35760405162461bcd60e51b815260206004820181905260248201527f4f776e61626c653a2063616c6c6572206973206e6f7420746865206f776e657260448201526064016104f2565b6065546000906001600160a01b031680156107a3576040805180820182526002815261060f60f31b60208201529051633af85da960e11b81526001600160a01b038316916375f0bb529161068a918a918a918a918a9160009182918291829182913390600401610a85565b600060405180830381600087803b1580156106a457600080fd5b505af11580156106b8573d6000803e3d6000fd5b505060675460405163468721a760e01b81526001600160a01b03909116925063468721a791506106f2908990899089908990600401610b14565b6020604051808303816000875af1158015610711573d6000803e3d6000fd5b505050506040513d601f19601f8201168201806040525081019061073591906109fb565b604051631264e26d60e31b815261060f60f31b600482015281151560248201529092506001600160a01b03821690639327136890604401600060405180830381600087803b15801561078657600080fd5b505af115801561079a573d6000803e3d6000fd5b5050505061081f565b60675460405163468721a760e01b81526001600160a01b039091169063468721a7906107d9908990899089908990600401610b14565b6020604051808303816000875af11580156107f8573d6000803e3d6000fd5b505050506040513d601f19601f8201168201806040525081019061081c91906109fb565b91505b50949350505050565b603380546001600160a01b038381166001600160a01b0319831681179093556040519116919082907f8be0079c531659141344cd1fd0a4f28419497f9722a3daafe3b4186f6b6457e090600090a35050565b80356001600160a01b038116811461089157600080fd5b919050565b6000602082840312156108a857600080fd5b6108b18261087a565b9392505050565b634e487b7160e01b600052604160045260246000fd5b6000602082840312156108e057600080fd5b813567ffffffffffffffff808211156108f857600080fd5b818401915084601f83011261090c57600080fd5b81358181111561091e5761091e6108b8565b604051601f8201601f19908116603f01168101908382118183101715610946576109466108b8565b8160405282815287602084870101111561095f57600080fd5b826020860160208301376000928101602001929092525095945050505050565b60006020828403121561099157600080fd5b5035919050565b6000806000606084860312156109ad57600080fd5b6109b68461087a565b92506109c46020850161087a565b9150604084013590509250925092565b808201808211156109f557634e487b7160e01b600052601160045260246000fd5b92915050565b600060208284031215610a0d57600080fd5b815180151581146108b157600080fd5b6000815180845260005b81811015610a4357602081850181015186830182015201610a27565b506000602082860101526020601f19601f83011685010191505092915050565b60028110610a8157634e487b7160e01b600052602160045260246000fd5b9052565b6001600160a01b038c81168252602082018c905261016060408301819052600091610ab28483018e610a1d565b9150610ac1606085018d610a63565b8a60808501528960a08501528860c085015280881660e0850152808716610100850152838203610120850152610af78287610a1d565b925080851661014085015250509c9b505050505050505050505050565b60018060a01b0385168152836020820152608060408201526000610b3b6080830185610a1d565b9050610b4a6060830184610a63565b9594505050505056fea2646970667358221220a590ac99c2afed252f5dcd86d540c5ca9f1e5b4762722865bd123343554dfde064736f6c63430008110033",
    "linkReferences": {}
  },
  "methodIdentifiers": {
    "avatar()": "5aef7de6",
    "beneficiary()": "38af3eed",
    "claimSafe(bytes)": "1a891577",
    "expiration()": "4665096d",
    "extendValidity(uint256)": "525a142f",
    "getGuard()": "c9106389",
    "guard()": "7ceab3b1",
    "init(address,address,uint256)": "86863ec6",
    "owner()": "8da5cb5b",
    "renounceOwnership()": "715018a6",
    "setAvatar(address)": "086cfca8",
    "setBeneficiary(address)": "1c31f710",
    "setGuard(address)": "e19a9dd9",
    "setTarget(address)": "776d1a01",
    "setUp(bytes)": "a4f9edbf",
    "target()": "d4b83992",
    "transferOwnership(address)": "f2fde38b"
  },
  "id": 12
}