{
  "abi": [
    {
      "inputs": [],
      "stateMutability": "nonpayable",
      "type": "constructor"
    },
    {
      "inputs": [
        {
          "internalType": "address",
          "name": "guard_",
          "type": "address"
        }
      ],
      "name": "NotIERC165Compliant",
      "type": "error"
    },
    {
      "anonymous": false,
      "inputs": [
        {
          "indexed": true,
          "internalType": "address",
          "name": "previousAvatar",
          "type": "address"
        },
        {
          "indexed": true,
          "internalType": "address",
          "name": "newAvatar",
          "type": "address"
        }
      ],
      "name": "AvatarSet",
      "type": "event"
    },
    {
      "anonymous": false,
      "inputs": [
        {
          "indexed": false,
          "internalType": "address",
          "name": "guard",
          "type": "address"
        }
      ],
      "name": "ChangedGuard",
      "type": "event"
    },
    {
      "anonymous": false,
      "inputs": [
        {
          "indexed": false,
          "internalType": "uint8",
          "name": "version",
          "type": "uint8"
        }
      ],
      "name": "Initialized",
      "type": "event"
    },
    {
      "anonymous": false,
      "inputs": [
        {
          "indexed": true,
          "internalType": "address",
          "name": "previousOwner",
          "type": "address"
        },
        {
          "indexed": true,
          "internalType": "address",
          "name": "newOwner",
          "type": "address"
        }
      ],
      "name": "OwnershipTransferred",
      "type": "event"
    },
    {
      "anonymous": false,
      "inputs": [
        {
          "indexed": true,
          "internalType": "address",
          "name": "previousTarget",
          "type": "address"
        },
        {
          "indexed": true,
          "internalType": "address",
          "name": "newTarget",
          "type": "address"
        }
      ],
      "name": "TargetSet",
      "type": "event"
    },
    {
      "inputs": [],
      "name": "avatar",
      "outputs": [
        {
          "internalType": "address",
          "name": "",
          "type": "address"
        }
      ],
      "stateMutability": "view",
      "type": "function"
    },
    {
      "inputs": [],
      "name": "beneficiary",
      "outputs": [
        {
          "internalType": "address",
          "name": "",
          "type": "address"
        }
      ],
      "stateMutability": "view",
      "type": "function"
    },
    {
      "inputs": [
        {
          "internalType": "bytes",
          "name": "data",
          "type": "bytes"
        }
      ],
      "name": "claimSafe",
      "outputs": [],
      "stateMutability": "nonpayable",
      "type": "function"
    },
    {
      "inputs": [],
      "name": "expiration",
      "outputs": [
        {
          "internalType": "uint256",
          "name": "",
          "type": "uint256"
        }
      ],
      "stateMutability": "view",
      "type": "function"
    },
    {
      "inputs": [
        {
          "internalType": "uint256",
          "name": "by",
          "type": "uint256"
        }
      ],
      "name": "extendValidity",
      "outputs": [],
      "stateMutability": "nonpayable",
      "type": "function"
    },
    {
      "inputs": [],
      "name": "getGuard",
      "outputs": [
        {
          "internalType": "address",
          "name": "_guard",
          "type": "address"
        }
      ],
      "stateMutability": "view",
      "type": "function"
    },
    {
      "inputs": [],
      "name": "guard",
      "outputs": [
        {
          "internalType": "address",
          "name": "",
          "type": "address"
        }
      ],
      "stateMutability": "view",
      "type": "function"
    },
    {
      "inputs": [
        {
          "internalType": "address",
          "name": "safe",
          "type": "address"
        },
        {
          "internalType": "address",
          "name": "_benefiary",
          "type": "address"
        },
        {
          "internalType": "uint256",
          "name": "_expiration",
          "type": "uint256"
        }
      ],
      "name": "init",
      "outputs": [],
      "stateMutability": "nonpayable",
      "type": "function"
    },
    {
      "inputs": [],
      "name": "owner",
      "outputs": [
        {
          "internalType": "address",
          "name": "",
          "type": "address"
        }
      ],
      "stateMutability": "view",
      "type": "function"
    },
    {
      "inputs": [],
      "name": "renounceOwnership",
      "outputs": [],
      "stateMutability": "nonpayable",
      "type": "function"
    },
    {
      "inputs": [
        {
          "internalType": "address",
          "name": "_avatar",
          "type": "address"
        }
      ],
      "name": "setAvatar",
      "outputs": [],
      "stateMutability": "nonpayable",
      "type": "function"
    },
    {
      "inputs": [
        {
          "internalType": "address",
          "name": "_guard",
          "type": "address"
        }
      ],
      "name": "setGuard",
      "outputs": [],
      "stateMutability": "nonpayable",
      "type": "function"
    },
    {
      "inputs": [
        {
          "internalType": "address",
          "name": "_target",
          "type": "address"
        }
      ],
      "name": "setTarget",
      "outputs": [],
      "stateMutability": "nonpayable",
      "type": "function"
    },
    {
      "inputs": [
        {
          "internalType": "bytes",
          "name": "initializeParams",
          "type": "bytes"
        }
      ],
      "name": "setUp",
      "outputs": [],
      "stateMutability": "nonpayable",
      "type": "function"
    },
    {
      "inputs": [],
      "name": "target",
      "outputs": [
        {
          "internalType": "address",
          "name": "",
          "type": "address"
        }
      ],
      "stateMutability": "view",
      "type": "function"
    },
    {
      "inputs": [
        {
          "internalType": "address",
          "name": "newOwner",
          "type": "address"
        }
      ],
      "name": "transferOwnership",
      "outputs": [],
      "stateMutability": "nonpayable",
      "type": "function"
    }
  ],
  "bytecode": {
    "object": "0x608060405234801561001057600080fd5b5061001a3361001f565b610071565b603380546001600160a01b038381166001600160a01b0319831681179093556040519116919082907f8be0079c531659141344cd1fd0a4f28419497f9722a3daafe3b4186f6b6457e090600090a35050565b610ada806100806000396000f3fe608060405234801561001057600080fd5b50600436106101005760003560e01c80637ceab3b111610097578063c910638911610066578063c9106389146101fd578063d4b839921461020e578063e19a9dd914610221578063f2fde38b1461023457600080fd5b80637ceab3b1146101b557806386863ec6146101c85780638da5cb5b146101db578063a4f9edbf146101ec57600080fd5b8063525a142f116100d3578063525a142f146101745780635aef7de614610187578063715018a61461019a578063776d1a01146101a257600080fd5b8063086cfca8146101055780631a8915771461011a57806338af3eed1461012d5780634665096d1461015d575b600080fd5b6101186101133660046107e7565b610247565b005b61011861012836600461081f565b6102a1565b606954610140906001600160a01b031681565b6040516001600160a01b0390911681526020015b60405180910390f35b61016660685481565b604051908152602001610154565b6101186101823660046108d0565b6102de565b606654610140906001600160a01b031681565b6101186102f2565b6101186101b03660046107e7565b610306565b606554610140906001600160a01b031681565b6101186101d63660046108e9565b610360565b6033546001600160a01b0316610140565b6101186101fa36600461081f565b50565b6065546001600160a01b0316610140565b606754610140906001600160a01b031681565b61011861022f3660046107e7565b610399565b6101186102423660046107e7565b6104a0565b61024f610516565b606680546001600160a01b038381166001600160a01b0319831681179093556040519116919082907f52ae88b092de36f87fb43fe794eb1381023b9c1bce563a871154022c63dce34290600090a35050565b426068541080156102bc57506069546001600160a01b031633145b156101fa576066546102da906001600160a01b031660008381610570565b5050565b806068546102ec9190610925565b60685550565b6102fa610516565b6103046000610779565b565b61030e610516565b606780546001600160a01b038381166001600160a01b0319831681179093556040519116919082907f90cc2f570a6eb594b1580ea3e41247d2d73a55281889e86bd4ec2fc29c7e62d690600090a35050565b61036983610247565b61037283610306565b606980546001600160a01b0319166001600160a01b03939093169290921790915560685550565b6103a1610516565b6001600160a01b0381161561044c576040516301ffc9a760e01b815263736bd41d60e11b60048201526001600160a01b038216906301ffc9a790602401602060405180830381865afa1580156103fb573d6000803e3d6000fd5b505050506040513d601f19601f8201168201806040525081019061041f919061094c565b61044c576040516358b7533f60e11b81526001600160a01b03821660048201526024015b60405180910390fd5b606580546001600160a01b0319166001600160a01b0383169081179091556040519081527f1151116914515bc0891ff9047a6cb32cf902546f83066499bcf8ba33d2353fa29060200160405180910390a150565b6104a8610516565b6001600160a01b03811661050d5760405162461bcd60e51b815260206004820152602660248201527f4f776e61626c653a206e6577206f776e657220697320746865207a65726f206160448201526564647265737360d01b6064820152608401610443565b6101fa81610779565b6033546001600160a01b031633146103045760405162461bcd60e51b815260206004820181905260248201527f4f776e61626c653a2063616c6c6572206973206e6f7420746865206f776e65726044820152606401610443565b6065546000906001600160a01b031680156106f4576040805180820182526002815261060f60f31b60208201529051633af85da960e11b81526001600160a01b038316916375f0bb52916105db918a918a918a918a91600091829182918291829133906004016109d6565b600060405180830381600087803b1580156105f557600080fd5b505af1158015610609573d6000803e3d6000fd5b505060675460405163468721a760e01b81526001600160a01b03909116925063468721a79150610643908990899089908990600401610a65565b6020604051808303816000875af1158015610662573d6000803e3d6000fd5b505050506040513d601f19601f82011682018060405250810190610686919061094c565b604051631264e26d60e31b815261060f60f31b600482015281151560248201529092506001600160a01b03821690639327136890604401600060405180830381600087803b1580156106d757600080fd5b505af11580156106eb573d6000803e3d6000fd5b50505050610770565b60675460405163468721a760e01b81526001600160a01b039091169063468721a79061072a908990899089908990600401610a65565b6020604051808303816000875af1158015610749573d6000803e3d6000fd5b505050506040513d601f19601f8201168201806040525081019061076d919061094c565b91505b50949350505050565b603380546001600160a01b038381166001600160a01b0319831681179093556040519116919082907f8be0079c531659141344cd1fd0a4f28419497f9722a3daafe3b4186f6b6457e090600090a35050565b80356001600160a01b03811681146107e257600080fd5b919050565b6000602082840312156107f957600080fd5b610802826107cb565b9392505050565b634e487b7160e01b600052604160045260246000fd5b60006020828403121561083157600080fd5b813567ffffffffffffffff8082111561084957600080fd5b818401915084601f83011261085d57600080fd5b81358181111561086f5761086f610809565b604051601f8201601f19908116603f0116810190838211818310171561089757610897610809565b816040528281528760208487010111156108b057600080fd5b826020860160208301376000928101602001929092525095945050505050565b6000602082840312156108e257600080fd5b5035919050565b6000806000606084860312156108fe57600080fd5b610907846107cb565b9250610915602085016107cb565b9150604084013590509250925092565b8082018082111561094657634e487b7160e01b600052601160045260246000fd5b92915050565b60006020828403121561095e57600080fd5b8151801515811461080257600080fd5b6000815180845260005b8181101561099457602081850181015186830182015201610978565b506000602082860101526020601f19601f83011685010191505092915050565b600281106109d257634e487b7160e01b600052602160045260246000fd5b9052565b6001600160a01b038c81168252602082018c905261016060408301819052600091610a038483018e61096e565b9150610a12606085018d6109b4565b8a60808501528960a08501528860c085015280881660e0850152808716610100850152838203610120850152610a48828761096e565b925080851661014085015250509c9b505050505050505050505050565b60018060a01b0385168152836020820152608060408201526000610a8c608083018561096e565b9050610a9b60608301846109b4565b9594505050505056fea2646970667358221220f4d7179b22062980b2ca2b5e418666c67bf12077becee5822de089c688f153dc64736f6c63430008110033",
    "linkReferences": {}
  },
  "methodIdentifiers": {
    "avatar()": "5aef7de6",
    "beneficiary()": "38af3eed",
    "claimSafe(bytes)": "1a891577",
    "expiration()": "4665096d",
    "extendValidity(uint256)": "525a142f",
    "getGuard()": "c9106389",
    "guard()": "7ceab3b1",
    "init(address,address,uint256)": "86863ec6",
    "owner()": "8da5cb5b",
    "renounceOwnership()": "715018a6",
    "setAvatar(address)": "086cfca8",
    "setGuard(address)": "e19a9dd9",
    "setTarget(address)": "776d1a01",
    "setUp(bytes)": "a4f9edbf",
    "target()": "d4b83992",
    "transferOwnership(address)": "f2fde38b"
  },
  "id": 25
}